{
  "contractName": "TicketManagement",
  "abi": [
    {
      "inputs": [],
      "stateMutability": "nonpayable",
      "type": "constructor"
    },
    {
      "anonymous": false,
      "inputs": [
        {
          "indexed": true,
          "internalType": "address",
          "name": "admin",
          "type": "address"
        }
      ],
      "name": "AdminAdded",
      "type": "event"
    },
    {
      "anonymous": false,
      "inputs": [
        {
          "indexed": true,
          "internalType": "address",
          "name": "admin",
          "type": "address"
        }
      ],
      "name": "AdminRemoved",
      "type": "event"
    },
    {
      "anonymous": false,
      "inputs": [
        {
          "indexed": true,
          "internalType": "uint256",
          "name": "eventId",
          "type": "uint256"
        },
        {
          "indexed": false,
          "internalType": "string",
          "name": "name",
          "type": "string"
        }
      ],
      "name": "EventCreated",
      "type": "event"
    },
    {
      "anonymous": false,
      "inputs": [
        {
          "indexed": true,
          "internalType": "uint256",
          "name": "eventId",
          "type": "uint256"
        }
      ],
      "name": "EventDeleted",
      "type": "event"
    },
    {
      "anonymous": false,
      "inputs": [
        {
          "indexed": true,
          "internalType": "uint256",
          "name": "ticketId",
          "type": "uint256"
        },
        {
          "indexed": true,
          "internalType": "uint256",
          "name": "eventId",
          "type": "uint256"
        },
        {
          "indexed": true,
          "internalType": "address",
          "name": "buyer",
          "type": "address"
        }
      ],
      "name": "TicketPurchased",
      "type": "event"
    },
    {
      "anonymous": false,
      "inputs": [
        {
          "indexed": true,
          "internalType": "uint256",
          "name": "ticketId",
          "type": "uint256"
        }
      ],
      "name": "TicketUsed",
      "type": "event"
    },
    {
      "inputs": [
        {
          "internalType": "address",
          "name": "",
          "type": "address"
        }
      ],
      "name": "admins",
      "outputs": [
        {
          "internalType": "bool",
          "name": "",
          "type": "bool"
        }
      ],
      "stateMutability": "view",
      "type": "function",
      "constant": true
    },
    {
      "inputs": [],
      "name": "eventCounter",
      "outputs": [
        {
          "internalType": "uint256",
          "name": "",
          "type": "uint256"
        }
      ],
      "stateMutability": "view",
      "type": "function",
      "constant": true
    },
    {
      "inputs": [
        {
          "internalType": "uint256",
          "name": "",
          "type": "uint256"
        }
      ],
      "name": "eventDescriptions",
      "outputs": [
        {
          "internalType": "string",
          "name": "",
          "type": "string"
        }
      ],
      "stateMutability": "view",
      "type": "function",
      "constant": true
    },
    {
      "inputs": [
        {
          "internalType": "uint256",
          "name": "",
          "type": "uint256"
        },
        {
          "internalType": "uint256",
          "name": "",
          "type": "uint256"
        }
      ],
      "name": "eventTickets",
      "outputs": [
        {
          "internalType": "uint256",
          "name": "",
          "type": "uint256"
        }
      ],
      "stateMutability": "view",
      "type": "function",
      "constant": true
    },
    {
      "inputs": [
        {
          "internalType": "uint256",
          "name": "",
          "type": "uint256"
        }
      ],
      "name": "events",
      "outputs": [
        {
          "internalType": "uint256",
          "name": "eventId",
          "type": "uint256"
        },
        {
          "internalType": "string",
          "name": "name",
          "type": "string"
        },
        {
          "internalType": "string",
          "name": "venue",
          "type": "string"
        },
        {
          "internalType": "uint256",
          "name": "eventDate",
          "type": "uint256"
        },
        {
          "internalType": "bool",
          "name": "isActive",
          "type": "bool"
        },
        {
          "internalType": "address",
          "name": "creator",
          "type": "address"
        }
      ],
      "stateMutability": "view",
      "type": "function",
      "constant": true
    },
    {
      "inputs": [],
      "name": "owner",
      "outputs": [
        {
          "internalType": "address",
          "name": "",
          "type": "address"
        }
      ],
      "stateMutability": "view",
      "type": "function",
      "constant": true
    },
    {
      "inputs": [],
      "name": "ticketCounter",
      "outputs": [
        {
          "internalType": "uint256",
          "name": "",
          "type": "uint256"
        }
      ],
      "stateMutability": "view",
      "type": "function",
      "constant": true
    },
    {
      "inputs": [
        {
          "internalType": "uint256",
          "name": "",
          "type": "uint256"
        }
      ],
      "name": "ticketSeats",
      "outputs": [
        {
          "internalType": "string",
          "name": "",
          "type": "string"
        }
      ],
      "stateMutability": "view",
      "type": "function",
      "constant": true
    },
    {
      "inputs": [
        {
          "internalType": "uint256",
          "name": "",
          "type": "uint256"
        }
      ],
      "name": "tickets",
      "outputs": [
        {
          "internalType": "uint256",
          "name": "ticketId",
          "type": "uint256"
        },
        {
          "internalType": "uint256",
          "name": "eventId",
          "type": "uint256"
        },
        {
          "internalType": "address",
          "name": "owner",
          "type": "address"
        },
        {
          "internalType": "enum TicketManagement.TicketType",
          "name": "ticketType",
          "type": "uint8"
        },
        {
          "internalType": "uint256",
          "name": "purchasePrice",
          "type": "uint256"
        },
        {
          "internalType": "uint256",
          "name": "purchaseTime",
          "type": "uint256"
        },
        {
          "internalType": "bool",
          "name": "isUsed",
          "type": "bool"
        }
      ],
      "stateMutability": "view",
      "type": "function",
      "constant": true
    },
    {
      "inputs": [
        {
          "internalType": "address",
          "name": "",
          "type": "address"
        },
        {
          "internalType": "uint256",
          "name": "",
          "type": "uint256"
        }
      ],
      "name": "userTickets",
      "outputs": [
        {
          "internalType": "uint256",
          "name": "",
          "type": "uint256"
        }
      ],
      "stateMutability": "view",
      "type": "function",
      "constant": true
    },
    {
      "inputs": [
        {
          "internalType": "address",
          "name": "_admin",
          "type": "address"
        }
      ],
      "name": "addAdmin",
      "outputs": [],
      "stateMutability": "nonpayable",
      "type": "function"
    },
    {
      "inputs": [
        {
          "internalType": "address",
          "name": "_admin",
          "type": "address"
        }
      ],
      "name": "removeAdmin",
      "outputs": [],
      "stateMutability": "nonpayable",
      "type": "function"
    },
    {
      "inputs": [
        {
          "internalType": "string",
          "name": "_name",
          "type": "string"
        },
        {
          "internalType": "string",
          "name": "_description",
          "type": "string"
        },
        {
          "internalType": "string",
          "name": "_venue",
          "type": "string"
        },
        {
          "internalType": "uint256",
          "name": "_eventDate",
          "type": "uint256"
        },
        {
          "internalType": "uint256[3]",
          "name": "_prices",
          "type": "uint256[3]"
        },
        {
          "internalType": "uint256[3]",
          "name": "_supply",
          "type": "uint256[3]"
        }
      ],
      "name": "createEvent",
      "outputs": [],
      "stateMutability": "nonpayable",
      "type": "function"
    },
    {
      "inputs": [
        {
          "internalType": "uint256",
          "name": "_eventId",
          "type": "uint256"
        },
        {
          "internalType": "enum TicketManagement.TicketType",
          "name": "_ticketType",
          "type": "uint8"
        },
        {
          "internalType": "string",
          "name": "_seat",
          "type": "string"
        }
      ],
      "name": "purchaseTicket",
      "outputs": [],
      "stateMutability": "payable",
      "type": "function",
      "payable": true
    },
    {
      "inputs": [
        {
          "internalType": "uint256",
          "name": "_ticketId",
          "type": "uint256"
        }
      ],
      "name": "verifyTicket",
      "outputs": [
        {
          "internalType": "bool",
          "name": "isValid",
          "type": "bool"
        },
        {
          "internalType": "bool",
          "name": "isUsed",
          "type": "bool"
        },
        {
          "internalType": "string",
          "name": "eventName",
          "type": "string"
        },
        {
          "internalType": "uint256",
          "name": "eventDate",
          "type": "uint256"
        }
      ],
      "stateMutability": "view",
      "type": "function",
      "constant": true
    },
    {
      "inputs": [
        {
          "internalType": "uint256",
          "name": "_ticketId",
          "type": "uint256"
        }
      ],
      "name": "useTicket",
      "outputs": [],
      "stateMutability": "nonpayable",
      "type": "function"
    },
    {
      "inputs": [
        {
          "internalType": "uint256",
          "name": "_eventId",
          "type": "uint256"
        }
      ],
      "name": "getEventDetails",
      "outputs": [
        {
          "internalType": "string",
          "name": "name",
          "type": "string"
        },
        {
          "internalType": "string",
          "name": "venue",
          "type": "string"
        },
        {
          "internalType": "uint256",
          "name": "eventDate",
          "type": "uint256"
        },
        {
          "internalType": "uint256[3]",
          "name": "prices",
          "type": "uint256[3]"
        },
        {
          "internalType": "bool",
          "name": "isActive",
          "type": "bool"
        }
      ],
      "stateMutability": "view",
      "type": "function",
      "constant": true
    },
    {
      "inputs": [
        {
          "internalType": "uint256",
          "name": "_eventId",
          "type": "uint256"
        }
      ],
      "name": "getEventSupply",
      "outputs": [
        {
          "internalType": "uint256[3]",
          "name": "supply",
          "type": "uint256[3]"
        },
        {
          "internalType": "uint256[3]",
          "name": "sold",
          "type": "uint256[3]"
        }
      ],
      "stateMutability": "view",
      "type": "function",
      "constant": true
    },
    {
      "inputs": [
        {
          "internalType": "uint256",
          "name": "_eventId",
          "type": "uint256"
        },
        {
          "internalType": "string",
          "name": "_name",
          "type": "string"
        },
        {
          "internalType": "string",
          "name": "_description",
          "type": "string"
        },
        {
          "internalType": "string",
          "name": "_venue",
          "type": "string"
        },
        {
          "internalType": "uint256",
          "name": "_eventDate",
          "type": "uint256"
        },
        {
          "internalType": "uint256[3]",
          "name": "_prices",
          "type": "uint256[3]"
        },
        {
          "internalType": "uint256[3]",
          "name": "_supply",
          "type": "uint256[3]"
        }
      ],
      "name": "updateEventDetails",
      "outputs": [],
      "stateMutability": "nonpayable",
      "type": "function"
    },
    {
      "inputs": [
        {
          "internalType": "uint256",
          "name": "_eventId",
          "type": "uint256"
        }
      ],
      "name": "deleteEvent",
      "outputs": [],
      "stateMutability": "nonpayable",
      "type": "function"
    },
    {
      "inputs": [
        {
          "internalType": "uint256",
          "name": "_ticketId",
          "type": "uint256"
        }
      ],
      "name": "getTicketDetails",
      "outputs": [
        {
          "internalType": "uint256",
          "name": "eventId",
          "type": "uint256"
        },
        {
          "internalType": "address",
          "name": "ticketOwner",
          "type": "address"
        },
        {
          "internalType": "enum TicketManagement.TicketType",
          "name": "ticketType",
          "type": "uint8"
        },
        {
          "internalType": "uint256",
          "name": "purchasePrice",
          "type": "uint256"
        },
        {
          "internalType": "bool",
          "name": "isUsed",
          "type": "bool"
        },
        {
          "internalType": "string",
          "name": "seat",
          "type": "string"
        }
      ],
      "stateMutability": "view",
      "type": "function",
      "constant": true
    },
    {
      "inputs": [
        {
          "internalType": "address",
          "name": "_user",
          "type": "address"
        }
      ],
      "name": "getUserTickets",
      "outputs": [
        {
          "internalType": "uint256[]",
          "name": "",
          "type": "uint256[]"
        }
      ],
      "stateMutability": "view",
      "type": "function",
      "constant": true
    },
    {
      "inputs": [
        {
          "internalType": "uint256",
          "name": "_eventId",
          "type": "uint256"
        }
      ],
      "name": "getEventTickets",
      "outputs": [
        {
          "internalType": "uint256[]",
          "name": "",
          "type": "uint256[]"
        }
      ],
      "stateMutability": "view",
      "type": "function",
      "constant": true
    },
    {
      "inputs": [
        {
          "internalType": "uint256",
          "name": "_eventId",
          "type": "uint256"
        }
      ],
      "name": "getAvailableTickets",
      "outputs": [
        {
          "internalType": "uint256[3]",
          "name": "available",
          "type": "uint256[3]"
        }
      ],
      "stateMutability": "view",
      "type": "function",
      "constant": true
    },
    {
      "inputs": [
        {
          "internalType": "uint256",
          "name": "_eventId",
          "type": "uint256"
        }
      ],
      "name": "deactivateEvent",
      "outputs": [],
      "stateMutability": "nonpayable",
      "type": "function"
    },
    {
      "inputs": [],
      "name": "withdraw",
      "outputs": [],
      "stateMutability": "nonpayable",
      "type": "function"
    },
    {
      "inputs": [
        {
          "internalType": "address",
          "name": "_newOwner",
          "type": "address"
        }
      ],
      "name": "transferOwnership",
      "outputs": [],
      "stateMutability": "nonpayable",
      "type": "function"
    }
  ],
  "bytecode": "0x608060405234801561001057600080fd5b50336000806101000a81548173ffffffffffffffffffffffffffffffffffffffff021916908373ffffffffffffffffffffffffffffffffffffffff1602179055506001600560003373ffffffffffffffffffffffffffffffffffffffff1673ffffffffffffffffffffffffffffffffffffffff16815260200190815260200160002060006101000a81548160ff021916908315150217905550613cfa806100b86000396000f3fe60806040526004361061019c5760003560e01c806352c55db9116100ec578063a291a9691161008a578063cf260baf11610064578063cf260baf1461063b578063ec38d5a014610678578063f2fde38b146106b9578063f8749a58146106e25761019c565b8063a291a96914610584578063b48cf502146105c1578063ca261ce1146105fe5761019c565b8063779cea77116100c6578063779cea77146104c85780638c4d59d0146105055780638da5cb5b14610530578063957a632e1461055b5761019c565b806352c55db914610434578063543cb81f1461045f578063704802751461049f5761019c565b80632617f138116101595780633ccfd60b116101335780633ccfd60b1461035f578063429b62e5146103765780634e18aa32146103b357806350b44712146103f15761019c565b80632617f138146102e4578063266064481461030d578063349cc4a6146103365761019c565b80630484a22f146101a15780630b791430146101de5780630cc7b2a914610220578063100ff5b91461025d5780631785f53c1461027957806324c14160146102a2575b600080fd5b3480156101ad57600080fd5b506101c860048036038101906101c39190612cf6565b61070b565b6040516101d59190613511565b60405180910390f35b3480156101ea57600080fd5b5061020560048036038101906102009190612e2d565b6107a2565b60405161021796959493929190613860565b60405180910390f35b34801561022c57600080fd5b5061024760048036038101906102429190612e2d565b61091b565b60405161025491906134cd565b60405180910390f35b61027760048036038101906102729190612e56565b610a7b565b005b34801561028557600080fd5b506102a0600480360381019061029b9190612cf6565b611060565b005b3480156102ae57600080fd5b506102c960048036038101906102c49190612e2d565b61121b565b6040516102db969594939291906137f8565b60405180910390f35b3480156102f057600080fd5b5061030b60048036038101906103069190612ebd565b611397565b005b34801561031957600080fd5b50610334600480360381019061032f9190612e2d565b611636565b005b34801561034257600080fd5b5061035d60048036038101906103589190612d5b565b61182e565b005b34801561036b57600080fd5b50610374611ba8565b005b34801561038257600080fd5b5061039d60048036038101906103989190612cf6565b611c9f565b6040516103aa9190613533565b60405180910390f35b3480156103bf57600080fd5b506103da60048036038101906103d59190612e2d565b611cbf565b6040516103e89291906134e8565b60405180910390f35b3480156103fd57600080fd5b5061041860048036038101906104139190612e2d565b611dc9565b60405161042b97969594939291906138cf565b60405180910390f35b34801561044057600080fd5b50610449611e45565b60405161045691906137dd565b60405180910390f35b34801561046b57600080fd5b5061048660048036038101906104819190612e2d565b611e4b565b604051610496949392919061354e565b60405180910390f35b3480156104ab57600080fd5b506104c660048036038101906104c19190612cf6565b611ffb565b005b3480156104d457600080fd5b506104ef60048036038101906104ea9190612fa5565b612197565b6040516104fc91906137dd565b60405180910390f35b34801561051157600080fd5b5061051a6121c8565b60405161052791906137dd565b60405180910390f35b34801561053c57600080fd5b506105456121ce565b60405161055291906134b2565b60405180910390f35b34801561056757600080fd5b50610582600480360381019061057d9190612e2d565b6121f2565b005b34801561059057600080fd5b506105ab60048036038101906105a69190612e2d565b612359565b6040516105b8919061359a565b60405180910390f35b3480156105cd57600080fd5b506105e860048036038101906105e39190612e2d565b6123f9565b6040516105f5919061359a565b60405180910390f35b34801561060a57600080fd5b5061062560048036038101906106209190612e2d565b612499565b6040516106329190613511565b60405180910390f35b34801561064757600080fd5b50610662600480360381019061065d9190612d1f565b612504565b60405161066f91906137dd565b60405180910390f35b34801561068457600080fd5b5061069f600480360381019061069a9190612e2d565b612535565b6040516106b09594939291906135bc565b60405180910390f35b3480156106c557600080fd5b506106e060048036038101906106db9190612cf6565b61273c565b005b3480156106ee57600080fd5b5061070960048036038101906107049190612e2d565b6128d5565b005b6060600660008373ffffffffffffffffffffffffffffffffffffffff1673ffffffffffffffffffffffffffffffffffffffff16815260200190815260200160002080548060200260200160405190810160405280929190818152602001828054801561079657602002820191906000526020600020905b815481526020019060010190808311610782575b50505050509050919050565b60036020528060005260406000206000915090508060000154908060010180546107cb90613b2a565b80601f01602080910402602001604051908101604052809291908181526020018280546107f790613b2a565b80156108445780601f1061081957610100808354040283529160200191610844565b820191906000526020600020905b81548152906001019060200180831161082757829003601f168201915b50505050509080600201805461085990613b2a565b80601f016020809104026020016040519081016040528092919081815260200182805461088590613b2a565b80156108d25780601f106108a7576101008083540402835291602001916108d2565b820191906000526020600020905b8154815290600101906020018083116108b557829003601f168201915b50505050509080600301549080600d0160009054906101000a900460ff169080600d0160019054906101000a900473ffffffffffffffffffffffffffffffffffffffff16905086565b610923612ac0565b8160008111801561093657506001548111155b610975576040517f08c379a000000000000000000000000000000000000000000000000000000000815260040161096c9061371d565b60405180910390fd5b600060036000858152602001908152602001600020905060005b6003811015610a735781600a0181600381106109d4577f4e487b7100000000000000000000000000000000000000000000000000000000600052603260045260246000fd5b0154826007018260038110610a12577f4e487b7100000000000000000000000000000000000000000000000000000000600052603260045260246000fd5b0154610a1e9190613a47565b848260038110610a57577f4e487b7100000000000000000000000000000000000000000000000000000000600052603260045260246000fd5b6020020181815250508080610a6b90613b5c565b91505061098f565b505050919050565b82600081118015610a8e57506001548111155b610acd576040517f08c379a0000000000000000000000000000000000000000000000000000000008152600401610ac49061371d565b60405180910390fd5b600060036000868152602001908152602001600020905080600d0160009054906101000a900460ff16610b35576040517f08c379a0000000000000000000000000000000000000000000000000000000008152600401610b2c9061377d565b60405180910390fd5b42816003015411610b7b576040517f08c379a0000000000000000000000000000000000000000000000000000000008152600401610b729061379d565b60405180910390fd5b6000846002811115610bb6577f4e487b7100000000000000000000000000000000000000000000000000000000600052602160045260246000fd5b9050816007018160038110610bf4577f4e487b7100000000000000000000000000000000000000000000000000000000600052603260045260246000fd5b015482600a018260038110610c32577f4e487b7100000000000000000000000000000000000000000000000000000000600052603260045260246000fd5b015410610c74576040517f08c379a0000000000000000000000000000000000000000000000000000000008152600401610c6b9061375d565b60405180910390fd5b6000826004018260038110610cb2577f4e487b7100000000000000000000000000000000000000000000000000000000600052603260045260246000fd5b0154905080341015610cf9576040517f08c379a0000000000000000000000000000000000000000000000000000000008152600401610cf0906136fd565b60405180910390fd5b82600a018260038110610d35577f4e487b7100000000000000000000000000000000000000000000000000000000600052603260045260246000fd5b016000815480929190610d4790613b5c565b919050555060026000815480929190610d5f90613b5c565b91905055506040518060e0016040528060025481526020018881526020013373ffffffffffffffffffffffffffffffffffffffff168152602001876002811115610dd2577f4e487b7100000000000000000000000000000000000000000000000000000000600052602160045260246000fd5b815260200182815260200142815260200160001515815250600460006002548152602001908152602001600020600082015181600001556020820151816001015560408201518160020160006101000a81548173ffffffffffffffffffffffffffffffffffffffff021916908373ffffffffffffffffffffffffffffffffffffffff16021790555060608201518160020160146101000a81548160ff02191690836002811115610eab577f4e487b7100000000000000000000000000000000000000000000000000000000600052602160045260246000fd5b02179055506080820151816003015560a0820151816004015560c08201518160050160006101000a81548160ff021916908315150217905550905050846008600060025481526020019081526020016000209080519060200190610f10929190612ae2565b50600660003373ffffffffffffffffffffffffffffffffffffffff1673ffffffffffffffffffffffffffffffffffffffff168152602001908152602001600020600254908060018154018082558091505060019003906000526020600020016000909190919091505560076000888152602001908152602001600020600254908060018154018082558091505060019003906000526020600020016000909190919091505580341115611010573373ffffffffffffffffffffffffffffffffffffffff166108fc8234610fe39190613a47565b9081150290604051600060405180830381858888f1935050505015801561100e573d6000803e3d6000fd5b505b3373ffffffffffffffffffffffffffffffffffffffff16876002547f94c5953e15f54d38b82a662bdd5739fc91af3a23d3ef7e67269dfaeee71a813c60405160405180910390a450505050505050565b60008054906101000a900473ffffffffffffffffffffffffffffffffffffffff1673ffffffffffffffffffffffffffffffffffffffff163373ffffffffffffffffffffffffffffffffffffffff16146110ee576040517f08c379a00000000000000000000000000000000000000000000000000000000081526004016110e59061365d565b60405180910390fd5b60008054906101000a900473ffffffffffffffffffffffffffffffffffffffff1673ffffffffffffffffffffffffffffffffffffffff168173ffffffffffffffffffffffffffffffffffffffff16141561117d576040517f08c379a0000000000000000000000000000000000000000000000000000000008152600401611174906136dd565b60405180910390fd5b6000600560008373ffffffffffffffffffffffffffffffffffffffff1673ffffffffffffffffffffffffffffffffffffffff16815260200190815260200160002060006101000a81548160ff0219169083151502179055508073ffffffffffffffffffffffffffffffffffffffff167fa3b62bc36326052d97ea62d63c3d60308ed4c3ea8ac079dd8499f1e9c4f80c0f60405160405180910390a250565b600080600080600060608660008111801561123857506002548111155b611277576040517f08c379a000000000000000000000000000000000000000000000000000000000815260040161126e9061369d565b60405180910390fd5b6000600460008a8152602001908152602001600020905080600101548160020160009054906101000a900473ffffffffffffffffffffffffffffffffffffffff168260020160149054906101000a900460ff1683600301548460050160009054906101000a900460ff16600860008f815260200190815260200160002080805461130090613b2a565b80601f016020809104026020016040519081016040528092919081815260200182805461132c90613b2a565b80156113795780601f1061134e57610100808354040283529160200191611379565b820191906000526020600020905b81548152906001019060200180831161135c57829003601f168201915b50505050509050975097509750975097509750505091939550919395565b600560003373ffffffffffffffffffffffffffffffffffffffff1673ffffffffffffffffffffffffffffffffffffffff16815260200190815260200160002060009054906101000a900460ff168061143a575060008054906101000a900473ffffffffffffffffffffffffffffffffffffffff1673ffffffffffffffffffffffffffffffffffffffff163373ffffffffffffffffffffffffffffffffffffffff16145b611479576040517f08c379a0000000000000000000000000000000000000000000000000000000008152600401611470906136bd565b60405180910390fd5b8660008111801561148c57506001548111155b6114cb576040517f08c379a00000000000000000000000000000000000000000000000000000000081526004016114c29061371d565b60405180910390fd5b600087511161150f576040517f08c379a00000000000000000000000000000000000000000000000000000000081526004016115069061367d565b60405180910390fd5b428411611551576040517f08c379a0000000000000000000000000000000000000000000000000000000008152600401611548906137bd565b60405180910390fd5b6000600360008a8152602001908152602001600020905087816001019080519060200190611580929190612ae2565b5085816002019080519060200190611599929190612ae2565b5084816003018190555083816004019060036115b6929190612b68565b5082816007019060036115ca929190612b68565b5086600960008b815260200190815260200160002090805190602001906115f2929190612ae2565b50887f9ce3d6db707bca4ba0eabed8fba1e2c013a1c0bc1132a764170a7854d198c73d89604051611623919061359a565b60405180910390a2505050505050505050565b600560003373ffffffffffffffffffffffffffffffffffffffff1673ffffffffffffffffffffffffffffffffffffffff16815260200190815260200160002060009054906101000a900460ff16806116d9575060008054906101000a900473ffffffffffffffffffffffffffffffffffffffff1673ffffffffffffffffffffffffffffffffffffffff163373ffffffffffffffffffffffffffffffffffffffff16145b611718576040517f08c379a000000000000000000000000000000000000000000000000000000000815260040161170f906136bd565b60405180910390fd5b8060008111801561172b57506002548111155b61176a576040517f08c379a00000000000000000000000000000000000000000000000000000000081526004016117619061369d565b60405180910390fd5b6004600083815260200190815260200160002060050160009054906101000a900460ff16156117ce576040517f08c379a00000000000000000000000000000000000000000000000000000000081526004016117c59061361d565b60405180910390fd5b60016004600084815260200190815260200160002060050160006101000a81548160ff021916908315150217905550817f1f5d53e38fbc5a40092861e993062e74fb6dc7acef58356c7b55aa1afd8b350160405160405180910390a25050565b600560003373ffffffffffffffffffffffffffffffffffffffff1673ffffffffffffffffffffffffffffffffffffffff16815260200190815260200160002060009054906101000a900460ff16806118d1575060008054906101000a900473ffffffffffffffffffffffffffffffffffffffff1673ffffffffffffffffffffffffffffffffffffffff163373ffffffffffffffffffffffffffffffffffffffff16145b611910576040517f08c379a0000000000000000000000000000000000000000000000000000000008152600401611907906136bd565b60405180910390fd5b6000865111611954576040517f08c379a000000000000000000000000000000000000000000000000000000000815260040161194b9061367d565b60405180910390fd5b428311611996576040517f08c379a000000000000000000000000000000000000000000000000000000000815260040161198d906137bd565b60405180910390fd5b600160008154809291906119a990613b5c565b9190505550604051806101200160405280600154815260200187815260200185815260200184815260200183815260200182815260200160405180606001604052806000815260200160008152602001600081525081526020016001151581526020013373ffffffffffffffffffffffffffffffffffffffff16815250600360006001548152602001908152602001600020600082015181600001556020820151816001019080519060200190611a61929190612ae2565b506040820151816002019080519060200190611a7e929190612ae2565b5060608201518160030155608082015181600401906003611aa0929190612b68565b5060a082015181600701906003611ab8929190612b68565b5060c082015181600a01906003611ad0929190612b68565b5060e082015181600d0160006101000a81548160ff02191690831515021790555061010082015181600d0160016101000a81548173ffffffffffffffffffffffffffffffffffffffff021916908373ffffffffffffffffffffffffffffffffffffffff160217905550905050846009600060015481526020019081526020016000209080519060200190611b65929190612ae2565b506001547f9ce3d6db707bca4ba0eabed8fba1e2c013a1c0bc1132a764170a7854d198c73d87604051611b98919061359a565b60405180910390a2505050505050565b60008054906101000a900473ffffffffffffffffffffffffffffffffffffffff1673ffffffffffffffffffffffffffffffffffffffff163373ffffffffffffffffffffffffffffffffffffffff1614611c36576040517f08c379a0000000000000000000000000000000000000000000000000000000008152600401611c2d9061365d565b60405180910390fd5b60008054906101000a900473ffffffffffffffffffffffffffffffffffffffff1673ffffffffffffffffffffffffffffffffffffffff166108fc479081150290604051600060405180830381858888f19350505050158015611c9c573d6000803e3d6000fd5b50565b60056020528060005260406000206000915054906101000a900460ff1681565b611cc7612ac0565b611ccf612ac0565b82600081118015611ce257506001548111155b611d21576040517f08c379a0000000000000000000000000000000000000000000000000000000008152600401611d189061371d565b60405180910390fd5b60006003600086815260200190815260200160002090508060070181600a0181600380602002604051908101604052809291908260038015611d78576020028201915b815481526020019060010190808311611d64575b5050505050915080600380602002604051908101604052809291908260038015611db7576020028201915b815481526020019060010190808311611da3575b50505050509050935093505050915091565b60046020528060005260406000206000915090508060000154908060010154908060020160009054906101000a900473ffffffffffffffffffffffffffffffffffffffff16908060020160149054906101000a900460ff16908060030154908060040154908060050160009054906101000a900460ff16905087565b60015481565b6000806060600084600081118015611e6557506002548111155b611ea4576040517f08c379a0000000000000000000000000000000000000000000000000000000008152600401611e9b9061369d565b60405180910390fd5b6000600460008881526020019081526020016000209050600060036000836001015481526020019081526020016000209050600073ffffffffffffffffffffffffffffffffffffffff168260020160009054906101000a900473ffffffffffffffffffffffffffffffffffffffff1673ffffffffffffffffffffffffffffffffffffffff1614158015611f45575080600d0160009054906101000a900460ff165b96508160050160009054906101000a900460ff169550806001018054611f6a90613b2a565b80601f0160208091040260200160405190810160405280929190818152602001828054611f9690613b2a565b8015611fe35780601f10611fb857610100808354040283529160200191611fe3565b820191906000526020600020905b815481529060010190602001808311611fc657829003601f168201915b50505050509450806003015493505050509193509193565b60008054906101000a900473ffffffffffffffffffffffffffffffffffffffff1673ffffffffffffffffffffffffffffffffffffffff163373ffffffffffffffffffffffffffffffffffffffff1614612089576040517f08c379a00000000000000000000000000000000000000000000000000000000081526004016120809061365d565b60405180910390fd5b600073ffffffffffffffffffffffffffffffffffffffff168173ffffffffffffffffffffffffffffffffffffffff1614156120f9576040517f08c379a00000000000000000000000000000000000000000000000000000000081526004016120f09061363d565b60405180910390fd5b6001600560008373ffffffffffffffffffffffffffffffffffffffff1673ffffffffffffffffffffffffffffffffffffffff16815260200190815260200160002060006101000a81548160ff0219169083151502179055508073ffffffffffffffffffffffffffffffffffffffff167f44d6d25963f097ad14f29f06854a01f575648a1ef82f30e562ccd3889717e33960405160405180910390a250565b600760205281600052604060002081815481106121b357600080fd5b90600052602060002001600091509150505481565b60025481565b60008054906101000a900473ffffffffffffffffffffffffffffffffffffffff1681565b600560003373ffffffffffffffffffffffffffffffffffffffff1673ffffffffffffffffffffffffffffffffffffffff16815260200190815260200160002060009054906101000a900460ff1680612295575060008054906101000a900473ffffffffffffffffffffffffffffffffffffffff1673ffffffffffffffffffffffffffffffffffffffff163373ffffffffffffffffffffffffffffffffffffffff16145b6122d4576040517f08c379a00000000000000000000000000000000000000000000000000000000081526004016122cb906136bd565b60405180910390fd5b806000811180156122e757506001548111155b612326576040517f08c379a000000000000000000000000000000000000000000000000000000000815260040161231d9061371d565b60405180910390fd5b600060036000848152602001908152602001600020600d0160006101000a81548160ff0219169083151502179055505050565b6009602052806000526040600020600091509050805461237890613b2a565b80601f01602080910402602001604051908101604052809291908181526020018280546123a490613b2a565b80156123f15780601f106123c6576101008083540402835291602001916123f1565b820191906000526020600020905b8154815290600101906020018083116123d457829003601f168201915b505050505081565b6008602052806000526040600020600091509050805461241890613b2a565b80601f016020809104026020016040519081016040528092919081815260200182805461244490613b2a565b80156124915780601f1061246657610100808354040283529160200191612491565b820191906000526020600020905b81548152906001019060200180831161247457829003601f168201915b505050505081565b6060600760008381526020019081526020016000208054806020026020016040519081016040528092919081815260200182805480156124f857602002820191906000526020600020905b8154815260200190600101908083116124e4575b50505050509050919050565b6006602052816000526040600020818154811061252057600080fd5b90600052602060002001600091509150505481565b6060806000612542612ac0565b60008560008111801561255757506001548111155b612596576040517f08c379a000000000000000000000000000000000000000000000000000000000815260040161258d9061371d565b60405180910390fd5b6000600360008981526020019081526020016000209050806001018160020182600301548360040184600d0160009054906101000a900460ff168480546125dc90613b2a565b80601f016020809104026020016040519081016040528092919081815260200182805461260890613b2a565b80156126555780601f1061262a57610100808354040283529160200191612655565b820191906000526020600020905b81548152906001019060200180831161263857829003601f168201915b5050505050945083805461266890613b2a565b80601f016020809104026020016040519081016040528092919081815260200182805461269490613b2a565b80156126e15780601f106126b6576101008083540402835291602001916126e1565b820191906000526020600020905b8154815290600101906020018083116126c457829003601f168201915b5050505050935081600380602002604051908101604052809291908260038015612720576020028201915b81548152602001906001019080831161270c575b5050505050915096509650965096509650505091939590929450565b60008054906101000a900473ffffffffffffffffffffffffffffffffffffffff1673ffffffffffffffffffffffffffffffffffffffff163373ffffffffffffffffffffffffffffffffffffffff16146127ca576040517f08c379a00000000000000000000000000000000000000000000000000000000081526004016127c19061365d565b60405180910390fd5b600073ffffffffffffffffffffffffffffffffffffffff168173ffffffffffffffffffffffffffffffffffffffff16141561283a576040517f08c379a00000000000000000000000000000000000000000000000000000000081526004016128319061363d565b60405180910390fd5b806000806101000a81548173ffffffffffffffffffffffffffffffffffffffff021916908373ffffffffffffffffffffffffffffffffffffffff1602179055506001600560008373ffffffffffffffffffffffffffffffffffffffff1673ffffffffffffffffffffffffffffffffffffffff16815260200190815260200160002060006101000a81548160ff02191690831515021790555050565b600560003373ffffffffffffffffffffffffffffffffffffffff1673ffffffffffffffffffffffffffffffffffffffff16815260200190815260200160002060009054906101000a900460ff1680612978575060008054906101000a900473ffffffffffffffffffffffffffffffffffffffff1673ffffffffffffffffffffffffffffffffffffffff163373ffffffffffffffffffffffffffffffffffffffff16145b6129b7576040517f08c379a00000000000000000000000000000000000000000000000000000000081526004016129ae906136bd565b60405180910390fd5b806000811180156129ca57506001548111155b612a09576040517f08c379a0000000000000000000000000000000000000000000000000000000008152600401612a009061371d565b60405180910390fd5b600060036000848152602001908152602001600020905080600d0160009054906101000a900460ff16612a71576040517f08c379a0000000000000000000000000000000000000000000000000000000008152600401612a689061373d565b60405180910390fd5b600081600d0160006101000a81548160ff021916908315150217905550827f24089da2b94d456671c6e08e154081718367fe1b3eb2bf048f9ded0b2ce2270a60405160405180910390a2505050565b6040518060600160405280600390602082028036833780820191505090505090565b828054612aee90613b2a565b90600052602060002090601f016020900481019282612b105760008555612b57565b82601f10612b2957805160ff1916838001178555612b57565b82800160010185558215612b57579182015b82811115612b56578251825591602001919060010190612b3b565b5b509050612b649190612ba8565b5090565b8260038101928215612b97579160200282015b82811115612b96578251825591602001919060010190612b7b565b5b509050612ba49190612ba8565b5090565b5b80821115612bc1576000816000905550600101612ba9565b5090565b6000612bd8612bd38461396f565b61393e565b90508082856020860282011115612bee57600080fd5b60005b85811015612c1e5781612c048882612ce1565b845260208401935060208301925050600181019050612bf1565b5050509392505050565b6000612c3b612c3684613995565b61393e565b905082815260208101848484011115612c5357600080fd5b612c5e848285613ae8565b509392505050565b600081359050612c7581613c86565b92915050565b600082601f830112612c8c57600080fd5b6003612c99848285612bc5565b91505092915050565b600081359050612cb181613c9d565b92915050565b600082601f830112612cc857600080fd5b8135612cd8848260208601612c28565b91505092915050565b600081359050612cf081613cad565b92915050565b600060208284031215612d0857600080fd5b6000612d1684828501612c66565b91505092915050565b60008060408385031215612d3257600080fd5b6000612d4085828601612c66565b9250506020612d5185828601612ce1565b9150509250929050565b6000806000806000806101408789031215612d7557600080fd5b600087013567ffffffffffffffff811115612d8f57600080fd5b612d9b89828a01612cb7565b965050602087013567ffffffffffffffff811115612db857600080fd5b612dc489828a01612cb7565b955050604087013567ffffffffffffffff811115612de157600080fd5b612ded89828a01612cb7565b9450506060612dfe89828a01612ce1565b9350506080612e0f89828a01612c7b565b92505060e0612e2089828a01612c7b565b9150509295509295509295565b600060208284031215612e3f57600080fd5b6000612e4d84828501612ce1565b91505092915050565b600080600060608486031215612e6b57600080fd5b6000612e7986828701612ce1565b9350506020612e8a86828701612ca2565b925050604084013567ffffffffffffffff811115612ea757600080fd5b612eb386828701612cb7565b9150509250925092565b6000806000806000806000610160888a031215612ed957600080fd5b6000612ee78a828b01612ce1565b975050602088013567ffffffffffffffff811115612f0457600080fd5b612f108a828b01612cb7565b965050604088013567ffffffffffffffff811115612f2d57600080fd5b612f398a828b01612cb7565b955050606088013567ffffffffffffffff811115612f5657600080fd5b612f628a828b01612cb7565b9450506080612f738a828b01612ce1565b93505060a0612f848a828b01612c7b565b925050610100612f968a828b01612c7b565b91505092959891949750929550565b60008060408385031215612fb857600080fd5b6000612fc685828601612ce1565b9250506020612fd785828601612ce1565b9150509250929050565b6000612fed8383613494565b60208301905092915050565b61300281613a7b565b82525050565b613011816139df565b61301b8184613a1a565b9250613026826139c5565b8060005b8381101561305757815161303e8782612fe1565b965061304983613a00565b92505060018101905061302a565b505050505050565b600061306a826139ea565b6130748185613a25565b935061307f836139cf565b8060005b838110156130b05781516130978882612fe1565b97506130a283613a0d565b925050600181019050613083565b5085935050505092915050565b6130c681613a8d565b82525050565b6130d581613ad6565b82525050565b60006130e6826139f5565b6130f08185613a36565b9350613100818560208601613af7565b61310981613c61565b840191505092915050565b6000613121600c83613a36565b91507f416c7265616479207573656400000000000000000000000000000000000000006000830152602082019050919050565b6000613161600f83613a36565b91507f496e76616c6964206164647265737300000000000000000000000000000000006000830152602082019050919050565b60006131a1600a83613a36565b91507f4f6e6c79206f776e6572000000000000000000000000000000000000000000006000830152602082019050919050565b60006131e1600a83613a36565b91507f456d707479206e616d65000000000000000000000000000000000000000000006000830152602082019050919050565b6000613221600e83613a36565b91507f496e76616c6964207469636b65740000000000000000000000000000000000006000830152602082019050919050565b6000613261600a83613a36565b91507f4f6e6c792061646d696e000000000000000000000000000000000000000000006000830152602082019050919050565b60006132a1601383613a36565b91507f43616e6e6f742072656d6f7665206f776e6572000000000000000000000000006000830152602082019050919050565b60006132e1601483613a36565b91507f496e73756666696369656e74207061796d656e740000000000000000000000006000830152602082019050919050565b6000613321600d83613a36565b91507f496e76616c6964206576656e74000000000000000000000000000000000000006000830152602082019050919050565b6000613361601383613a36565b91507f4576656e74206973206e6f7420616374697665000000000000000000000000006000830152602082019050919050565b60006133a1600883613a36565b91507f536f6c64206f75740000000000000000000000000000000000000000000000006000830152602082019050919050565b60006133e1600e83613a36565b91507f4576656e7420696e6163746976650000000000000000000000000000000000006000830152602082019050919050565b6000613421600c83613a36565b91507f4576656e742070617373656400000000000000000000000000000000000000006000830152602082019050919050565b6000613461600983613a36565b91507f50617374206461746500000000000000000000000000000000000000000000006000830152602082019050919050565b61349d81613acc565b82525050565b6134ac81613acc565b82525050565b60006020820190506134c76000830184612ff9565b92915050565b60006060820190506134e26000830184613008565b92915050565b600060c0820190506134fd6000830185613008565b61350a6060830184613008565b9392505050565b6000602082019050818103600083015261352b818461305f565b905092915050565b600060208201905061354860008301846130bd565b92915050565b600060808201905061356360008301876130bd565b61357060208301866130bd565b818103604083015261358281856130db565b905061359160608301846134a3565b95945050505050565b600060208201905081810360008301526135b481846130db565b905092915050565b600060e08201905081810360008301526135d681886130db565b905081810360208301526135ea81876130db565b90506135f960408301866134a3565b6136066060830185613008565b61361360c08301846130bd565b9695505050505050565b6000602082019050818103600083015261363681613114565b9050919050565b6000602082019050818103600083015261365681613154565b9050919050565b6000602082019050818103600083015261367681613194565b9050919050565b60006020820190508181036000830152613696816131d4565b9050919050565b600060208201905081810360008301526136b681613214565b9050919050565b600060208201905081810360008301526136d681613254565b9050919050565b600060208201905081810360008301526136f681613294565b9050919050565b60006020820190508181036000830152613716816132d4565b9050919050565b6000602082019050818103600083015261373681613314565b9050919050565b6000602082019050818103600083015261375681613354565b9050919050565b6000602082019050818103600083015261377681613394565b9050919050565b60006020820190508181036000830152613796816133d4565b9050919050565b600060208201905081810360008301526137b681613414565b9050919050565b600060208201905081810360008301526137d681613454565b9050919050565b60006020820190506137f260008301846134a3565b92915050565b600060c08201905061380d60008301896134a3565b61381a6020830188612ff9565b61382760408301876130cc565b61383460608301866134a3565b61384160808301856130bd565b81810360a083015261385381846130db565b9050979650505050505050565b600060c08201905061387560008301896134a3565b818103602083015261388781886130db565b9050818103604083015261389b81876130db565b90506138aa60608301866134a3565b6138b760808301856130bd565b6138c460a0830184612ff9565b979650505050505050565b600060e0820190506138e4600083018a6134a3565b6138f160208301896134a3565b6138fe6040830188612ff9565b61390b60608301876130cc565b61391860808301866134a3565b61392560a08301856134a3565b61393260c08301846130bd565b98975050505050505050565b6000604051905081810181811067ffffffffffffffff8211171561396557613964613c32565b5b8060405250919050565b600067ffffffffffffffff82111561398a57613989613c32565b5b602082029050919050565b600067ffffffffffffffff8211156139b0576139af613c32565b5b601f19601f8301169050602081019050919050565b6000819050919050565b6000819050602082019050919050565b600060039050919050565b600081519050919050565b600081519050919050565b6000602082019050919050565b6000602082019050919050565b600081905092915050565b600082825260208201905092915050565b600082825260208201905092915050565b6000613a5282613acc565b9150613a5d83613acc565b925082821015613a7057613a6f613ba5565b5b828203905092915050565b6000613a8682613aac565b9050919050565b60008115159050919050565b6000819050613aa782613c72565b919050565b600073ffffffffffffffffffffffffffffffffffffffff82169050919050565b6000819050919050565b6000613ae182613a99565b9050919050565b82818337600083830152505050565b60005b83811015613b15578082015181840152602081019050613afa565b83811115613b24576000848401525b50505050565b60006002820490506001821680613b4257607f821691505b60208210811415613b5657613b55613c03565b5b50919050565b6000613b6782613acc565b91507fffffffffffffffffffffffffffffffffffffffffffffffffffffffffffffffff821415613b9a57613b99613ba5565b5b600182019050919050565b7f4e487b7100000000000000000000000000000000000000000000000000000000600052601160045260246000fd5b7f4e487b7100000000000000000000000000000000000000000000000000000000600052602160045260246000fd5b7f4e487b7100000000000000000000000000000000000000000000000000000000600052602260045260246000fd5b7f4e487b7100000000000000000000000000000000000000000000000000000000600052604160045260246000fd5b6000601f19601f8301169050919050565b60038110613c8357613c82613bd4565b5b50565b613c8f81613a7b565b8114613c9a57600080fd5b50565b60038110613caa57600080fd5b50565b613cb681613acc565b8114613cc157600080fd5b5056fea2646970667358221220efabc1864df7528244ac85d74ad13eb055fda1070408b409695d1139738e145564736f6c63430008000033",
  "immutableReferences": {},
  "source": "// SPDX-License-Identifier: MIT\npragma solidity ^0.8.0;\n\ncontract TicketManagement {\n    address public owner;\n    uint256 public eventCounter;\n    uint256 public ticketCounter;\n\n    enum TicketType { REGULAR, VIP, VVIP }\n\n    struct Event {\n        uint256 eventId;\n        string name;\n        string venue;\n        uint256 eventDate;\n        uint256[3] prices; // [regular, vip, vvip]\n        uint256[3] supply; // [regular, vip, vvip]\n        uint256[3] sold;   // [regular, vip, vvip]\n        bool isActive;\n        address creator;\n    }\n\n    struct Ticket {\n        uint256 ticketId;\n        uint256 eventId;\n        address owner;\n        TicketType ticketType;\n        uint256 purchasePrice;\n        uint256 purchaseTime;\n        bool isUsed;\n    }\n\n    // Mappings\n    mapping(uint256 => Event) public events;\n    mapping(uint256 => Ticket) public tickets;\n    mapping(address => bool) public admins;\n    mapping(address => uint256[]) public userTickets;\n    mapping(uint256 => uint256[]) public eventTickets;\n    mapping(uint256 => string) public ticketSeats;\n    mapping(uint256 => string) public eventDescriptions;\n\n    // Events\n    event AdminAdded(address indexed admin);\n    event AdminRemoved(address indexed admin);\n    event EventCreated(uint256 indexed eventId, string name);\n    event EventDeleted(uint256 indexed eventId);\n    event TicketPurchased(uint256 indexed ticketId, uint256 indexed eventId, address indexed buyer);\n    event TicketUsed(uint256 indexed ticketId);\n\n    modifier onlyOwner() {\n        require(msg.sender == owner, \"Only owner\");\n        _;\n    }\n\n    modifier onlyAdmin() {\n        require(admins[msg.sender] || msg.sender == owner, \"Only admin\");\n        _;\n    }\n\n    modifier validEvent(uint256 _eventId) {\n        require(_eventId > 0 && _eventId <= eventCounter, \"Invalid event\");\n        _;\n    }\n\n    modifier validTicket(uint256 _ticketId) {\n        require(_ticketId > 0 && _ticketId <= ticketCounter, \"Invalid ticket\");\n        _;\n    }\n\n    constructor() {\n        owner = msg.sender;\n        admins[msg.sender] = true;\n    }\n\n    function addAdmin(address _admin) external onlyOwner {\n        require(_admin != address(0), \"Invalid address\");\n        admins[_admin] = true;\n        emit AdminAdded(_admin);\n    }\n\n    function removeAdmin(address _admin) external onlyOwner {\n        require(_admin != owner, \"Cannot remove owner\");\n        admins[_admin] = false;\n        emit AdminRemoved(_admin);\n    }\n\n    function createEvent(\n        string memory _name,\n        string memory _description,\n        string memory _venue,\n        uint256 _eventDate,\n        uint256[3] memory _prices,\n        uint256[3] memory _supply\n    ) external onlyAdmin {\n        require(bytes(_name).length > 0, \"Empty name\");\n        require(_eventDate > block.timestamp, \"Past date\");\n\n        eventCounter++;\n\n        events[eventCounter] = Event({\n            eventId: eventCounter,\n            name: _name,\n            venue: _venue,\n            eventDate: _eventDate,\n            prices: _prices,\n            supply: _supply,\n            sold: [uint256(0), uint256(0), uint256(0)],\n            isActive: true,\n            creator: msg.sender\n        });\n\n        eventDescriptions[eventCounter] = _description;\n        emit EventCreated(eventCounter, _name);\n    }\n\n    function purchaseTicket(\n        uint256 _eventId,\n        TicketType _ticketType,\n        string memory _seat\n    ) external payable validEvent(_eventId) {\n        Event storage evt = events[_eventId];\n        require(evt.isActive, \"Event inactive\");\n        require(evt.eventDate > block.timestamp, \"Event passed\");\n\n        uint256 typeIndex = uint256(_ticketType);\n        require(evt.sold[typeIndex] < evt.supply[typeIndex], \"Sold out\");\n\n        uint256 price = evt.prices[typeIndex];\n        require(msg.value >= price, \"Insufficient payment\");\n\n        evt.sold[typeIndex]++;\n        ticketCounter++;\n\n        tickets[ticketCounter] = Ticket({\n            ticketId: ticketCounter,\n            eventId: _eventId,\n            owner: msg.sender,\n            ticketType: _ticketType,\n            purchasePrice: price,\n            purchaseTime: block.timestamp,\n            isUsed: false\n        });\n\n        ticketSeats[ticketCounter] = _seat;\n        userTickets[msg.sender].push(ticketCounter);\n        eventTickets[_eventId].push(ticketCounter);\n\n        if (msg.value > price) {\n            payable(msg.sender).transfer(msg.value - price);\n        }\n\n        emit TicketPurchased(ticketCounter, _eventId, msg.sender);\n    }\n\n    function verifyTicket(uint256 _ticketId) external view validTicket(_ticketId)\n        returns (bool isValid, bool isUsed, string memory eventName, uint256 eventDate) {\n        Ticket storage ticket = tickets[_ticketId];\n        Event storage evt = events[ticket.eventId];\n\n        isValid = ticket.owner != address(0) && evt.isActive;\n        isUsed = ticket.isUsed;\n        eventName = evt.name;\n        eventDate = evt.eventDate;\n    }\n\n    function useTicket(uint256 _ticketId) external onlyAdmin validTicket(_ticketId) {\n        require(!tickets[_ticketId].isUsed, \"Already used\");\n        tickets[_ticketId].isUsed = true;\n        emit TicketUsed(_ticketId);\n    }\n\n    function getEventDetails(uint256 _eventId) external view validEvent(_eventId)\n        returns (\n            string memory name,\n            string memory venue,\n            uint256 eventDate,\n            uint256[3] memory prices,\n            bool isActive\n        ) {\n        Event storage evt = events[_eventId];\n        return (evt.name, evt.venue, evt.eventDate, evt.prices, evt.isActive);\n    }\n\n    function getEventSupply(uint256 _eventId) external view validEvent(_eventId)\n        returns (uint256[3] memory supply, uint256[3] memory sold) {\n        Event storage evt = events[_eventId];\n        return (evt.supply, evt.sold);\n    }\n\n    function updateEventDetails(\n        uint256 _eventId,\n        string memory _name,\n        string memory _description,\n        string memory _venue,\n        uint256 _eventDate,\n        uint256[3] memory _prices,\n        uint256[3] memory _supply\n    ) external onlyAdmin validEvent(_eventId) {\n        require(bytes(_name).length > 0, \"Empty name\");\n        require(_eventDate > block.timestamp, \"Past date\");\n\n        Event storage evt = events[_eventId];\n        evt.name = _name;\n        evt.venue = _venue;\n        evt.eventDate = _eventDate;\n        evt.prices = _prices;\n        evt.supply = _supply;\n        eventDescriptions[_eventId] = _description;\n\n        emit EventCreated(_eventId, _name);\n    }\n\n    function deleteEvent(uint256 _eventId) external onlyAdmin validEvent(_eventId) {\n        Event storage evt = events[_eventId];\n        require(evt.isActive, \"Event is not active\");\n\n        // Mark the event as inactive\n        evt.isActive = false;\n\n        // Optionally, you can also clear other event details\n        // evt.name = \"\";\n        // evt.venue = \"\";\n        // evt.eventDate = 0;\n        // evt.prices = [0, 0, 0];\n        // evt.supply = [0, 0, 0];\n        // evt.sold = [0, 0, 0];\n        // delete eventDescriptions[_eventId];\n\n        // Emit an event to indicate that the event has been deleted\n        emit EventDeleted(_eventId);\n    }\n\n    function getTicketDetails(uint256 _ticketId) external view validTicket(_ticketId)\n        returns (\n            uint256 eventId,\n            address ticketOwner,\n            TicketType ticketType,\n            uint256 purchasePrice,\n            bool isUsed,\n            string memory seat\n        ) {\n        Ticket storage ticket = tickets[_ticketId];\n        return (\n            ticket.eventId,\n            ticket.owner,\n            ticket.ticketType,\n            ticket.purchasePrice,\n            ticket.isUsed,\n            ticketSeats[_ticketId]\n        );\n    }\n\n    function getUserTickets(address _user) external view returns (uint256[] memory) {\n        return userTickets[_user];\n    }\n\n    function getEventTickets(uint256 _eventId) external view returns (uint256[] memory) {\n        return eventTickets[_eventId];\n    }\n\n    function getAvailableTickets(uint256 _eventId) external view validEvent(_eventId)\n        returns (uint256[3] memory available) {\n        Event storage evt = events[_eventId];\n        for (uint i = 0; i < 3; i++) {\n            available[i] = evt.supply[i] - evt.sold[i];\n        }\n    }\n\n    function deactivateEvent(uint256 _eventId) external onlyAdmin validEvent(_eventId) {\n        events[_eventId].isActive = false;\n    }\n\n    function withdraw() external onlyOwner {\n        payable(owner).transfer(address(this).balance);\n    }\n\n    function transferOwnership(address _newOwner) external onlyOwner {\n        require(_newOwner != address(0), \"Invalid address\");\n        owner = _newOwner;\n        admins[_newOwner] = true;\n    }\n}",
  "sourcePath": "C:\\Users\\labz\\Desktop\\BlockTicket\\contracts\\TicketManagement.sol",
  "compiler": {
    "name": "solc",
    "version": "0.8.0+commit.c7dfd78e.Emscripten.clang"
  },
  "schemaVersion": "3.4.16",
  "updatedAt": "2025-08-13T09:28:43.180Z",
  "networkType": "ethereum",
  "devdoc": {
    "kind": "dev",
    "methods": {},
    "version": 1
  },
  "userdoc": {
    "kind": "user",
    "methods": {},
    "version": 1
  }
}